:030000000204DA1D
:0C04DA00787FE4F6D8FD75812D0203AA9E
:10040E0048656C6C6F2C2074686973206973207753
:10041E006F726B696E672077697468206F6E6520E6
:10042E0062797465202E2E2E200D000D2E2E2E207C
:10043E00627574206E6F7420776974682032200D97
:01044E0000AD
:10048200AB07AA06C2AF75C7828DC2EAF5C3EBF508
:0B049200C475C50275C65A00D2AF2227
:04049D00AD07AC06F5
:1004A100C2AF75C780ECF5C3EDF5C475C50175C65E
:0604B1005A00AFC2D2AFF9
:0104B7002222
:1003AA007519AA7F807E257D007C001204E67BFFFA
:1003BA007A04790E1204B87DAAE4FFFE12048212AE
:1003CA00049DE4FCFD751E0112031D7BFF7A04796E
:1003DA00391204B87DBB7F017E00120482007DCCF5
:1003EA000F1204821F12049DE4FCFD751E01120304
:1003FA001D007F027E0012049DE4FCFD751E0112A1
:04040A00031D80FE50
:0B04E600438920759850D28E02044F0D
:08044F008F1D8E1C8D1B8C1A01
:10045700E47F807E01FDFCAB1DAA1CA91BA81A1214
:100467000049A804A905AA06AB077F007E807D5135
:0A0477007C011200D41201668F8D83
:010481002258
:0804F1008F993099FDC2992298
:0E04CB0030980BAF99C2988F993099FDC29965
:0104D9002200
:1004B800120003FF600C1204F1740129F9E43AFAFE
:0304C80080EE22A1
:08026B008F0B8E0A8D098C082F
:10027300E4F516751709FFFEFDFCAB0BAA0AA909E5
:10028300A808C3120174700CAF171517740C2FF85C
:1002930076308053E4FFFEFDFCAB0BAA0AA909A844
:1002A30008D31201744040E5179400403AE47B0AF6
:1002B300FAF9F8AF0BAE0AAD09AC081200D4EB247F
:1002C30030FFAE171517740C2EF8A607AF0BAE0A46
:1002D300AD09AC08E47B0AFAF9F81200D48F0B8E4F
:0E02E3000A8D098C0880ADE517C394004023F6
:1002F100E4F518C3740A9517FFE518C39F5014E578
:10030100172518240DF8E6FF740C2518F8A6070523
:030311001880E071
:090314007B007A00790C0204B8A8
:08031D008F1D8E1C8D1B8C1A34
:10032500E4F5237B03FAE51E75F002A4FFEAC39FFB
:10033500E5F06480F8748098503BEBC39400403539
:10034500AF1DAE1CAD1BAC1AEA25E025E0F9F8128D
:100355000185EF540FFF8F24E524C3940AE524504B
:10036500052430FF80032437FFAE031B741F2EF8CE
:02037500A607D9
:090377000A80B1EBC3940040219F
:10038000E4F524C374049BFFE524C39F5013E524C4
:100390002B2420F8E6FF741F2524F8A607052480E7
:0103A000E27A
:0903A1007B007A00791F0204B808
:0A0198008B258A2689278C288D29E3
:1001A200E4F52BF52C752D02AB250527E527AA26AC
:1001B2007002052614F9120003F52A700302026A7E
:1001C200642560030202620527E527AA267002055C
:1001D2002614F9120003F52AB4641285282B852906
:1001E2002CAE2BAF2CE4FCFD12026B80BBE52A6423
:1001F200787066AB25AA26A927120003FFC3648084
:1002020094B14045D3EF648094B9503DEF24D0F5CA
:100212002DAB25AA26A92790000112001CFFC3645A
:100222008094B04024D3EF648094B9501C0527E534
:100232002770020526F9AA2612000324D0FFE52D15
:1002420075F00AA42FF52D80C8AE28AF29E4FCFD75
:10025200852D1E12031D0201AA7F251204F18000C2
:08026200AF2A1204F10201AA07
:01026A002271
:10000300BB010689828A83E0225002E722BBFE02FB
:09001300E32289828A83E493222E
:10001C00BB010CE58229F582E5833AF583E0225099
:10002C0006E92582F8E622BBFE06E92582F8E222E3
:0D003C00E58229F582E5833AF583E49322FD
:10004900E88FF0A4CC8BF0A42CFCE98EF0A42CFC56
:100059008AF0EDA42CFCEA8EF0A4CDA8F08BF0A4D4
:100069002DCC3825F0FDE98FF0A42CCD35F0FCEB33
:100079008EF0A4FEA9F0EB8FF0A4CFC5F02ECD39F8
:0F008900FEE43CFCEAA42DCE35F0FDE43CFC2265
:1000980075F008758200EF2FFFEE33FECD33CDCC1F
:1000A80033CCC58233C5829BED9AEC99E5829840A2
:1000B8000CF582EE9BFEED9AFDEC99FC0FD5F0D67F
:1000C800E4CEFBE4CDFAE4CCF9A88222B800C1B9A9
:1000D8000059BA002DEC8BF084CFCECDFCE5F0CBE7
:1000E800F97818EF2FFFEE33FEED33FDEC33FCEB20
:1000F80033FB10D703994004EB99FB0FD8E5E4F9DB
:10010800FA227818EF2FFFEE33FEED33FDEC33FCC7
:10011800C933C910D7059BE99A4007EC9BFCE99ABB
:10012800F90FD8E0E4C9FAE4CCFB2275F010EF2F00
:10013800FFEE33FEED33FDCC33CCC833C810D70700
:100148009BEC9AE899400AED9BFDEC9AFCE899F83B
:0E0158000FD5F0DAE4CDFBE4CCFAE4C8F922CE
:0E016600C3E49FFFE49EFEE49DFDE49CFC22AA
:10017400EB9FF5F0EA9E42F0E99D42F0E89C45F0E1
:010184002258
:10018500E8600FECC313FCED13FDEE13FEEF13FF58
:03019500D8F1227C
:00000001FF
